S0160000506F7572696E674D616368696E652E7372656375
S11300000C9452000C946F000C946F000C946F00CD
S11300100C946F000C946F000C946F000C946F00A0
S11300200C946F000C9460050C946F000C946F009A
S11300300C946F000C9487050C946F000C946F0063
S11300400C9466010C946F000C946F000C946F0078
S11300500C946F000C9471000C946F000C946F005E
S11300600C946F000C946F00B805C305E5050706F2
S113007029067A069E06C006E206AE07C707E00711
S1130080F90712082B084408430A520A610A700A45
S11300907F0A8E0A9D0AD00ADF0AEE0AFD0A0C0BBB
S11300A01B0B2A0B11241FBECFEFD8E0DEBFCDBF40
S11300B012E0A0E0B1E0E2EDFAE102C005900D9299
S11300C0A230B107D9F722E0A2E0B2E001C01D924C
S11300D0A333B207E1F70E9489070C94670D0C94CF
S11300E000001F920F920FB60F9211242F933F938B
S11300F04F935F936F937F938F939F93AF93BF932C
S11301008091780080930202209179002093030269
S113011080913102909132028431910588F44091AA
S1130120270250912802BA01620F711D70932802B0
S113013060932702019690933202809331021AC091
S11301402091270230912802ADECBCEC0E94360DC0
S1130150929582958F7089279F70892790931702B3
S113016080931602109232021092310210922802E9
S113017010922702BF91AF919F918F917F916F91C0
S11301805F914F913F912F910F900FBE0F901F9051
S11301901895EAE7F0E080818F6E8083ECE7F0E069
S11301A08081806680830895EEE6F0E0808181603E
S11301B0808385B5836085BD08958230E9F028F495
S11301C0882349F0813079F03FC0843049F1F0F060
S11301D0853081F139C080911602909117024997B8
S11301E0A8F182E0089580911602909117024A972F
S11301F0879770F182E0089580911602909117021A
S113020082549109C19730F182E0089580911602D9
S113021090911702845791098C97F0F082E0089529
S11302208091160290911702865A91094D97B0F069
S113023082E008958091160290911702895C9109D9
S1130240439770F082E0089584E0089581E0089572
S113025081E0089581E0089581E0089581E00895A2
S113026081E008951F93CF93DF93C82FD0E0FE0160
S1130270EF5DFD4F108115FD25C00E94DD00823029
S113028089F4FE01EC5FFD4F8081882319F08150D1
S1130290808318C010FF16C0CF5DDD4F1E7F126132
S11302A0188310C0FE01EC5FFD4F8081863018F486
S11302B08F5F808307C011FF05C0CF5DDD4F1D7FB9
S11302C019601883DF91CF911F9108951F920F92A7
S11302D00FB60F9211242F933F934F935F936F9315
S11302E07F938F939F93AF93BF93EF93FF938091EB
S11302F01102823099F018F4813031F032C0843028
S1130300E9F08530F9F02DC084E00E94320185E0E7
S11303100E94320181E00E94320123C080E00E94E9
S1130320320181E00E94320182E00E94320183E0C6
S11303300E94320184E00E94320113C085E00E94D1
S113034032010FC080E00E94320181E00E9432013C
S113035082E00E94320183E00E94320184E00E9424
S11303603201FF91EF91BF91AF919F918F917F9156
S11303706F915F914F913F912F910F900FBE0F900E
S11303801F901895E82FF0E0EF5DFD4F6095808198
S1130390682360830895E82FF0E0EF5DFD4F8081CE
S11303A0682B60830895E1E2F2E082E08083818338
S11303B082838383848385830E94D4000895F9997A
S11303C0FECF982F907F990F990F92BD8F7081BDAA
S11303D060BDFA9AF99A0895F999FECF982F907F03
S11303E0990F990F92BD8F7081BDF89A80B50895C9
S11303F01F93CF93DF93EC01172F0E94DF01612F2E
S1130400CE0101960E94DF01DF91CF911F910895E3
S11304100F931F93CF93DF938C0101960E94EC01FD
S1130420C82FD0E0DC2FCC270000C8010E94EC01CB
S11304309E01280F311DC901DF91CF911F910F91AA
S113044008955B9A28EC30E0F9013197F1F79BB1FC
S11304509F709BB99BB18295807F892B8BB95B98E8
S1130460C9010197F1F70895CF93C82F611102C014
S11304705A9801C05A9A8C2F82958F700E9421023B
S11304808C2F0E942102CF91089561E00E943402D2
S1130490089590E4699F800D112460E080680E94B3
S11304A034020895CF93DF9380E69AEE0197F1F733
S11304B083E00E94210280E89EE30197F1F783E044
S11304C00E94210280E991E00197F1F783E00E9404
S11304D02102C0EADFE0CE010197F1F782E00E9439
S11304E02102CE010197F1F760E088E20E94340214
S11304F0CE010197F1F760E08CE00E943402CE0156
S11305000197F1F760E086E00E9434022197F1F749
S1130510DF91CF91089560E081E00E94340280E78A
S113052097E10197F1F70895CF93DF93EC01888168
S1130530882331F021960E94450289918111FBCFD5
S1130540DF91CF910895CF93DF9300D000D01F9215
S1130550CDB7DEB7AC01403187E2580708F463C079
S11305609A01329522952F7023273F702327A7E401
S1130570B3E00E94360D9695879596958795969546
S1130580879520E3280F298360E177E2869F900115
S1130590879F300D969F300D1124CA01821B930B47
S11305A09C01369527953695279536952795A5EC84
S11305B0B0E20E94360D929582958F7089279F70C4
S11305C08927805D8A838EE28B839A0136952795ED
S11305D036952795369527950E94360D92958295E6
S11305E08F7089279F70892768EE73E0869F90013A
S11305F0879F300D969F300D1124CA01821B930BE7
S11306009C013695279536952795ABE7B4E10E9472
S1130610360D96958795805D8C831D82CE0101965B
S11306200E94940234C09A013695279536952795F1
S113063036952795A5ECB0E20E94360D92958295E9
S11306408F7089279F70892720E3280F29832EE242
S11306502A8368EE73E0869F9001879F300D969FF2
S1130660300D1124CA01821B930B9C0136952795EA
S113067036952795ABE7B4E10E94360D969587959C
S1130680805D8B831C82CE0101960E9494020F90A0
S11306900F900F900F900F90DF91CF9108950F93CB
S11306A01F93CF93DF9300D000D000D0CDB7DEB737
S11306B08C01803127E2920708F499C09C0132959D
S11306C022952F7023273F702327A7E4B3E00E94CD
S11306D0360D96958795969587959695879520E3FB
S11306E0280F298340E157E2849F9001859F300DB4
S11306F0949F300D1124C801821B930B9C013695E5
S113070027953695279536952795A5ECB0E20E9456
S1130710360D929582958F7089279F708927805D09
S11307208A8398013695279536952795369527958A
S11307300E94360D929582958F7089279F70892724
S113074048EE53E0849F9001859F300D949F300DB7
S11307501124C801821B930B9C013695279536956D
S11307602795ABE7B4E10E94360D96958795805D99
S11307708B83980136952795369527950E94360DDB
S11307809695879544E6489F9001499F300D112422
S1130790C801821B930B9C01ADECBCEC0E94360D8E
S11307A0969587959695879596958795805D8C8384
S11307B098010E94360D96958795969587959695FE
S11307C087959C01220F331F880F991F880F991F4B
S11307D0880F991F820F931F9801281B390BC90199
S11307E0805D8D831E82CE0101960E949402C80111
S11307F0885E93408832934208F06BC09801369526
S113080027953695279536952795A5ECB0E20E9455
S1130810360D929582958F7089279F70892720E3E2
S1130820280F298348EE53E0849F9001859F300D63
S1130830949F300D1124C801821B930B9C013695A3
S1130840279536952795ABE7B4E10E94360D96952A
S11308508795805D8A8398013695279536952795E7
S11308600E94360D9695879544E6489F9001499FCE
S1130870300D1124C801821B930B9C01ADECBCEC20
S11308800E94360D969587959695879596958795AA
S1130890805D8B8398010E94360D96958795969579
S11308A08795969587959C01220F331F880F991F72
S11308B0880F991F880F991F820F931F9801281B77
S11308C0390BC901805D8C831D82CE0101960E9483
S11308D09402C801845691098438934008F068C092
S11308E09801369527953695279536952795A5EC45
S11308F0B0E20E94360D929582958F7089279F7081
S1130900892748EE53E0849F9001859F300D949F82
S1130910300D1124C801821B930B9C013695279539
S113092036952795ABE7B4E10E94360D96958795E9
S1130930805D8983980136952795369527950E9481
S1130940360D9695879544E6489F9001499F300D52
S11309501124C801821B930B9C01ADECBCEC0E94DA
S1130960360D969587959695879596958795805D8E
S11309708A8398010E94360D96958795969587955A
S1130980969587959C01220F331F880F991F880F16
S1130990991F880F991F820F931F9801281B390BE9
S11309A0C901805D8B831C82CE0101960E94940252
S11309B0C8010A978A35910508F040C09801369518
S11309C0279536952795ABE7B4E10E94360D9695A9
S11309D0879544E6489F9001499F300D1124C80132
S11309E0821B930B9C01ADECBCEC0E94360D9695DA
S11309F087959695879596958795805D89839801C7
S1130A000E94360D96958795969587959695879528
S1130A109C01220F331F880F991F880F991F880F7D
S1130A20991F820F931F9801281B390BC901805D00
S1130A308A831B82CE0101960E9494020A3011051A
S1130A40F8F49801ADECBCEC0E94360D96958795B0
S1130A5096958795969587959C01220F331F880F4D
S1130A60991F880F991F880F991F820F931F081BC6
S1130A70190B005D09831A82CE0101960E9494022B
S1130A8026960FB6F894DEBF0FBECDBFDF91CF918F
S1130A901F910F9108958CEF8AB91BB88EEF87B917
S1130AA08FEF88B94598209A289A089590930D025B
S1130AB080930C02E0E7F0E08081816080830895F8
S1130AC01F920F920FB60F9211248F939F93EF935F
S1130AD0FF9380910C0290910D02009751F4E0E78E
S1130AE0F0E080818E7F808310920D0210920C02C0
S1130AF005C0019790930D0280930C02FF91EF9132
S1130B009F918F910F900FBE0F901F9018951F9279
S1130B100F920FB60F9211248F939F938091290205
S1130B2090912A02019690932A02809329029F9120
S1130B308F910F900FBE0F901F901895419A429A73
S1130B40439A449A289A10921202089580910001BF
S1130B50811110920001E09112028E2F90E08930F1
S1130B60910508F07BC1FC01EC5CFF4F0C94300D47
S1130B7010922A02109229024198359B6FC181E09C
S1130B8080931202089580910A0290910B02892B9E
S1130B9061F480911D0290911E020E94560581E02D
S1130BA090E090930B0280930A0280910C02909142
S1130BB00D02892B09F052C1449882E080931202FD
S1130BC010920B0210920A02089580910A029091E9
S1130BD00B02892B61F480911302909114020E94FC
S1130BE0560581E090E090930B0280930A02809175
S1130BF00C0290910D02892B09F030C1429883E0D8
S1130C008093120210920B0210920A0208958091AE
S1130C100A0290910B02892B61F480911B0290913E
S1130C201C020E94560581E090E090930B02809391
S1130C300A0280910C0290910D02892B09F00EC1D9
S1130C40439810920B0210920A0284E080931202DD
S1130C500895439880910A0290910B02892B51F4D4
S1130C608CE291E00E94560581E090E090930B02A3
S1130C7080930A0280910C0290910D02892B09F055
S1130C80EDC0439A85E08093120260912F02709127
S1130C9030026F5F7F4F7093300260932F028FE0BA
S1130CA090E00E94F8010E948B0260E070E080E016
S1130CB00E94490281E091E00E94940261E070E0A8
S1130CC080E00E94490289E091E00E94940261E080
S1130CD070E086E00E94490280912F0290913002D8
S1130CE00E944F0381E080931A0210920B0210922B
S1130CF00A02089580910A0290910B02892B71F4E3
S1130D0080911F02909120028C5291400E945605BE
S1130D1081E090E090930B0280930A0280910C0290
S1130D2090910D02892B09F099C0429A86E0809334
S1130D30120210920B0210920A02089580910A0284
S1130D4090910B02892B61F480912B0290912C02DB
S1130D500E94560581E090E090930B0280930A0272
S1130D6080910C0290910D02892B09F077C0419A71
S1130D7087E08093120210920B0210920A020895E7
S1130D8080910A0290910B02892B61F480912D02CB
S1130D9090912E020E94560581E090E090930B0200
S1130DA080930A0280910C0290910D02892B09F024
S1130DB055C0419888E08093120210920B02109261
S1130DC00A02089580910A0290910B02892B61F422
S1130DD080911802909119020E94560581E090E0DA
S1130DE090930B0280930A0280910C0290910D0261
S1130DF0892B39F4449A1092120210920B02109229
S1130E000A0280910001811129C081E080930001D0
S1130E1060E070E08BE00E94490280E191E00E9472
S1130E20940261E070E08BE00E94490286E191E067
S1130E300E94940261E070E08BE00E9449022091DC
S1130E40290230912A0240E050E06CEE7AE38DE012
S1130E5090E00E94110DC9010E944F03089581E0A2
S1130E6090E00E940802909319028093180283E094
S1130E7090E00E94080290931E0280931D0285E078
S1130E8090E00E9408029093200280931F0287E062
S1130E9090E00E940802909314028093130289E068
S1130EA090E00E94080290932E0280932D028BE022
S1130EB090E00E94080290932C0280932B028DE014
S1130EC090E00E94080290931C0280931B028FE022
S1130ED090E00E9408029093300280932F020895BC
S1130EE0E0E7F0E080818E7F8083E1EBF0E08081B9
S1130EF08560808380818E7F80830895EFE6F0E0B3
S1130F00808181608083E1E8F0E08081816080837A
S1130F1008950E944B050E942F070E9452020E94CE
S1130F20C9000E94D3010E9470070E947E07789432
S1130F301092110281E080931A020E945D08FDCF95
S1130F40E09110028E2F90E0FC013197E730F1051B
S1130F5008F0B2C0E35CFF4F0C94300D0E948B028A
S1130F6060E070E080E00E9449028BE191E00E9421
S1130F70940261E070E084E00E94490280911802CA
S1130F80909119020E94A3021092100208950E94E7
S1130F908B0260E070E080E00E9449028AE291E006
S1130FA00E94940261E070E084E00E944902809112
S1130FB01D0290911E020E94A30210921002089535
S1130FC00E948B0260E070E080E00E94490288E3A6
S1130FD091E00E94940261E070E084E00E94490282
S1130FE080911F02909120020E94A302109210028D
S1130FF008950E948B0260E070E080E00E94490244
S113100083E491E00E94940261E070E084E00E9435
S1131010490280911302909114020E94A30210923B
S1131020100208950E948B0260E070E080E00E944C
S1131030490281E591E00E94940261E070E084E05D
S11310400E94490280912D0290912E020E94A302D7
S11310501092100208950E948B0260E070E080E01C
S11310600E94490280E691E00E94940261E070E0EF
S113107084E00E94490280912B0290912C020E94EC
S1131080A3021092100208950E948B0260E070E0A7
S113109080E00E94490281E791E00E94940261E0AD
S11310A070E084E00E94490280911B0290911C022E
S11310B00E94A302109210020895809111028230BE
S11310C009F47EC128F4882361F08130B1F09FC413
S11310D0843009F41CC108F406C1853009F4EAC25D
S11310E096C40E948B0284E891E00E9494020E94BC
S11310F09E0581E0809311028AC480911A0288239C
S1131100B1F061E070E080E00E94490289E091E082
S11311100E94940261E070E086E00E94490280919E
S11311202F02909130020E944F0310921A021899D4
S1131130289A8091210284FF1BC060E280E00E9413
S1131140CB0160E180E00E94C20168E080E00E947F
S1131150CB010E948B0260E070E080E00E944902B3
S113116081E991E00E94940260E280E00E94C20161
S11311708091220284FF3FC060E281E00E94CB01A3
S113118060E181E00E94C20168E081E00E94CB013D
S113119060E070E08FE090E00E94F8018FE090E062
S11311A00E9408029093300280932F020E948B02C7
S11311B060E070E080E00E94490284E891E00E94CF
S11311C0940261E070E080E00E94490289E091E0CD
S11311D00E94940261E070E086E00E9449028091DE
S11311E02F02909130020E944F0381E080931A02F3
S11311F060E20E94C2018091230284FF1BC060E26E
S113120082E00E94CB0160E182E00E94C20168E0BA
S113121082E00E94CB010E948B0260E070E080E0DB
S11312200E9449028EE991E00E94940260E282E009
S11312300E94C2018091240284FF1BC060E283E00B
S11312400E94CB0160E183E00E94C20168E083E078
S11312500E94CB010E948B0260E070E080E00E945B
S1131260490289EA91E00E94940260E283E00E94CC
S1131270C2018091250284FF1EC060E284E00E94C6
S1131280CB0160E184E00E94C20168E084E00E9436
S1131290CB0182E0809311020E948B0260E070E037
S11312A080E00E94490284EB91E00E94940260E293
S11312B084E00E94C2018091260284FFA8C360E2F8
S11312C085E00E94CB0160E185E00E94C20168E0F4
S11312D085E00E94CB0183E08093110260E285E007
S11312E00E94C20194C30E948B0260E070E080E01F
S11312F00E94490281E091E00E94940281E080937F
S11313001A020E949E0584E08093110280C380919A
S11313101A028823B1F061E070E080E00E94490283
S113132089E091E00E94940261E070E086E00E940E
S1131330490280912F02909130020E944F03109233
S11313401A02189928980E94A6058091260284FF03
S11313505EC360E285E00E94CB0160E185E00E940B
S1131360C20168E085E00E94CB0181E08093110214
S113137080931A020E949E050E948B0260E070E036
S113138080E00E94490284E891E00E94940261E0B6
S113139070E080E00E94490289E091E00E9494029A
S11313A061E070E086E00E94490280912F029091F2
S11313B030020E944F0360E285E00E94C20127C30D
S11313C08091210284FF1FC060E280E00E94CB0173
S11313D060E180E00E94C20168E080E00E94CB01ED
S11313E080911502873020F48F5F8093150203C02B
S11313F081E080931502809115028093100260E2CF
S113140080E00E94C2018091240284FF1FC060E238
S113141083E00E94CB0160E183E00E94C20168E0A6
S113142083E00E94CB0180911502823020F081502C
S11314308093150203C087E0809315028091150202
S11314408093100260E283E00E94C2018091220234
S113145084FF89C060E281E00E94CB0160E181E009
S11314600E94C20168E081E00E94CB0180911502D4
S113147090E0FC013197E730F10508F06CC0EC5BBB
S1131480FF4F0C94300D60911802709119026C5941
S11314907F4F709319026093180281E090E00E94DC
S11314A0F80159C060911D0270911E026C597F4F62
S11314B070931E0260931D0283E090E00E94F80185
S11314C04AC060911F02709120026C597F4F709343
S11314D0200260931F0285E090E00E94F8013BC067
S11314E060911302709114026C597F4F709314022F
S11314F06093130287E090E00E94F8012CC0609191
S11315002D0270912E026C597F4F70932E026093BE
S11315102D0289E090E00E94F8011DC060912B0229
S113152070912C026C597F4F70932C0260932B02A4
S11315308BE090E00E94F8010EC060911B02709154
S11315401C026C597F4F70931C0260931B028DE048
S113155090E00E94F801809115028093100260E2ED
S113156081E00E94C2018091230284FF89C060E26D
S113157082E00E94CB0160E182E00E94C20168E047
S113158082E00E94CB018091150290E0FC0131972A
S1131590E730F10508F06CC0E55BFF4F0C94300DAB
S11315A060911802709119026456710970931902BE
S11315B06093180281E090E00E94F80159C06091A4
S11315C01D0270911E026456710970931E0260938D
S11315D01D0283E090E00E94F8014AC060911F025E
S11315E070912002645671097093200260931F0267
S11315F085E090E00E94F8013BC060911302709175
S1131600140264567109709314026093130287E004
S113161090E00E94F8012CC060912D0270912E027E
S11316206456710970932E0260932D0289E090E054
S11316300E94F8011DC060912B0270912C02645627
S1131640710970932C0260932B028BE090E00E944E
S1131650F8010EC060911B0270911C02645671095E
S113166070931C0260931B028DE090E00E94F801CD
S1131670809115028093100260E282E00E94C20110
S11316800E94A0078091250284FFC1C160E284E02A
S11316900E94CB0160E184E00E94C20168E084E022
S11316A00E94CB0185E08093110260E284E00E94F5
S11316B0C201ADC180910E028111C5C080910F029B
S11316C0823009F455C028F4882351F0813061F147
S11316D0BAC0833009F470C0843009F491C0B3C037
S11316E00E948B0260E070E080E00E9449028FEB70
S11316F091E00E949402319B0AC061E070E086E0B0
S11317000E94490280ED91E00E94940209C061E0C8
S113171070E086E00E94490283ED91E00E94940209
S113172081E080930E028FC00E948B0260E070E023
S113173080E00E94490286ED91E00E949402349B6D
S11317400AC061E070E086E00E94490280ED91E009
S11317500E94940209C061E070E086E00E944902A0
S113176083ED91E00E94940281E080930E026BC0AD
S11317700E948B0260E070E080E00E94490287EEE4
S113178091E00E949402329B0AC061E070E086E01E
S11317900E94490280ED91E00E94940209C061E038
S11317A070E086E00E94490283ED91E00E94940279
S11317B081E080930E0247C00E948B0260E070E0DB
S11317C080E00E9449028FEE91E00E949402339BD4
S11317D00AC061E070E086E00E94490280ED91E079
S11317E00E94940209C061E070E086E00E94490210
S11317F083ED91E00E94940281E080930E0223C065
S11318000E948B0260E070E080E00E94490288EF51
S113181091E00E949402189B0AC061E070E086E0A7
S11318200E94490280ED91E00E94940209C061E0A7
S113183070E086E00E94490283ED91E00E949402E8
S113184081E080930E028091250284FF17C060E23C
S113185084E00E94CB0160E184E00E94C20168E060
S113186084E00E94CB011092110281E080931A025D
S113187010920E0260E284E00E94C2018091220272
S113188084FF4EC060E281E00E94CB0160E181E010
S11318900E94C20168E081E00E94CB0180910F02A6
S11318A0823099F028F4882341F0813051F034C01B
S11318B0833079F0843069F12FC0419810920E0280
S11318C02BC0449810920E0227C0429810920E0228
S11318D023C061E070E086E00E94490283ED91E05C
S11318E00E949402439880EA9FE020E931E0F901E4
S11318F03197F1F70197D9F7439A61E070E086E0F8
S11319000E94490280ED91E00E94940210920E021E
S113191003C0289810920E0260E281E00E94C20186
S11319208091230284FF32C060E282E00E94CB01F6
S113193060E182E00E94C20168E082E00E94CB0183
S113194080910F02823099F028F4882341F081308D
S113195051F018C0833079F0843089F013C0419A73
S113196010920E020FC0449A10920E020BC0429ABB
S113197010920E0207C0439A10920E0203C0289AD6
S113198010920E0260E282E00E94C2018091210264
S113199084FF1DC060E280E00E94CB0160E180E032
S11319A00E94C20168E080E00E94CB0180910F0296
S11319B0882321F0815080930F0203C084E0809338
S11319C00F0210920E0260E280E00E94C201809138
S11319D0240284FF1CC060E283E00E94CB0160E12A
S11319E083E00E94C20168E083E00E94CB01809101
S11319F00F02843020F48F5F80930F0202C0109294
S1131A000F0210920E0260E283E00E94C20184EF92
S1131A1091E020E931E0F9013197F1F70197D9F725
S1131A200895052E97FB1EF400940E94280D57FD7F
S1131A3007D00E94450D07FC03D04EF40C94280DEA
S1131A4050954095309521953F4F4F4F5F4F0895E6
S1131A5090958095709561957F4F8F4F9F4F089516
S1131A60EE0FFF1F0590F491E02D0994A29FB001A1
S1131A70B39FC001A39F700D811D1124911DB29FBE
S1131A80700D811D1124911D0895A1E21A2EAA1B27
S1131A90BB1BFD010DC0AA1FBB1FEE1FFF1FA2171A
S1131AA0B307E407F50720F0A21BB30BE40BF50B17
S1131AB0661F771F881F991F1A9469F760957095A0
S1131AC0809590959B01AC01BD01CF010895F894D8
S1051AD0FFCF42
S1131AD2015374617274656400436F756E742000FF
S1131AE27370656564002020202000426F6F746566
S1131AF26C5370616973696E6700496E426F6F74EB
S1131B026C6544656C61750056616C796544656CFD
S1131B126179006C696674646F776E44656C61798F
S1131B2200426F74746C654F757444656C6179001E
S1131B3241667465724C696674557044656C61796A
S1131B420041667465724C696674446F776E4465CD
S1131B526C61790057656C6B6F6D20526F6D616EAD
S1131B6200427574746F6E52696E676874004275D0
S1131B7274746F6E446F776E00427574746F6E4C3A
S1131B82656674003C20536574696E67203E00529A
S1131B92696768536570617261746F725F6F6E001A
S1131BA24F46004F4E004C65667453657061726116
S1131BB2746F725F6F6E004C6966745F6F6E00566D
S1131BC2616C75655F6F6E00436F7665725F6F6EF1
S1051BD200000D
S9030000FC
